:100000000C942A000C943F000C943F000C943F0089
:100010000C943F000C943F000C943F000C943F0064
:100020000C943F000C943F000C943F000C943F0054
:100030000C943F000C943F000C943F000C943F0044
:100040000C943F000C943F000C943F000C943F0034
:100050000C943F0011241FBECFE5D8E0DEBFCDBF1A
:1000600010E0A0E6B0E0E6E0F5E002C005900D92F9
:10007000A037B107D9F70E940F010C9481020C94AC
:1000800000009BB39F70282F207F922B9BBBD8989A
:10009000D998DA9A0000DA9832E43A95F1F700C07C
:1000A0002BB32F7030E1839FC0011124822B8BBBB7
:1000B000DA9A0000DA9883EF91E00197F1F700C037
:1000C000000008959BB39F70282F207F922B9BBB2D
:1000D000D89AD998DA9A0000DA9832E43A95F1F78A
:1000E00000C02BB32F7030E1839FC0011124822BFD
:1000F0008BBBDA9A0000DA9883EF91E00197F1F771
:1001000000C0000008958FEF8ABB87E893E1019754
:10011000F1F700C0000082E00E94410088E20E94E6
:1001200041008CE00E94410086E00E94410081E095
:100130000E94410083EF91E00197F1F700C00000B9
:100140000895CF93DF93EC018881882331F02196C5
:100150000E94620089918111FBCFDF91CF910895B8
:1001600081E00E94410083EF91E00197F1F700C028
:100170000000089580EF84BB8FEF85BB61E070E0E5
:1001800040E050E0CA0104969B0102C0220F331FD9
:100190008A95E2F7C901809585BB81EE94E00197CD
:1001A000F1F700C00000989B0DC021E030E083B360
:1001B00090E0022E02C0959587950A94E2F780FDA3
:1001C00022C002C020E030E061E070E0022E02C0F8
:1001D000660F771F0A94E2F783B390E08623972394
:1001E000892BD1F387E893E10197F1F700C0000074
:1001F000220F331F220F331F205A3F4FF901E40F04
:10020000F51F808108952F5F3F4F2430310579F627
:100210004F5F5F4F4430510509F0B4CFB1CFCF935A
:10022000DF93CDB7DEB760970FB6F894DEBF0FBE91
:10023000CDBF0E9483000E94B00000E0312C412C11
:10024000512C3201C12CD12C7601812C912C5401DE
:10025000222423940E94BA00182F80ED810F8A3047
:1002600008F041C0812F0E94620001111EC0880C5D
:10027000991CAA1CBB1CD501C401880F991FAA1F79
:10028000BB1F880F991FAA1FBB1F880E991EAA1E8D
:10029000BB1E812F90E0C097092E000CAA0BBB0B50
:1002A000880E991EAA1EBB1ED5CFCC0CDD1CEE1CE1
:1002B000FF1CD701C601880F991FAA1FBB1F880FFB
:1002C000991FAA1FBB1FC80ED91EEA1EFB1E812F35
:1002D00090E0C097092E000CAA0BBB0BC80ED91ECC
:1002E000EA1EFB1EB7CF812F8D7F8D3221F086ED68
:1002F000810F823030F4812F0E946200312E022D56
:10030000A9CF1D3309F049C08DE30E9462008BE242
:10031000381207C0240135014C0C5D1C6E1C7F1C7B
:1003200026C08DE2381207C0240135014C185D0843
:100330006E087F081CC08AE2381209C0A50194012A
:10034000C701B6010E94E1012B013C0110C08FE200
:1003500038120DC0C114D104E104F10441F0C5010B
:10036000B401A70196010E94F10129013A014AE076
:10037000BE016F5F7F4FC2010E944C0280EC0E9461
:100380004100CE0101960E94A10053014201022DBD
:10039000C12CD12CE12CF12C5DCF133409F05ACFB4
:1003A0000E94B00000E0312C412C512C612C712CAA
:1003B000C12CD12CE12CF12C812C912CA12CB12C15
:1003C00049CFDB018F939F930E941002BF91AF91A1
:1003D000A29F800D911DA39F900DB29F900D11249F
:1003E0000895052E97FB1EF400940E94080257FD05
:1003F00007D00E941B0207FC03D04EF40C940802A5
:1004000050954095309521953F4F4F4F5F4F089540
:1004100090958095709561957F4F8F4F9F4F089570
:100420000E943D02A59F900DB49F900DA49F800D4A
:10043000911D11240895A1E21A2EAA1BBB1BFD01D8
:100440000DC0AA1FBB1FEE1FFF1FA217B307E407B3
:10045000F50720F0A21BB30BE40BF50B661F771F0B
:10046000881F991F1A9469F76095709580959095EB
:100470009B01AC01BD01CF010895A29FB001B39FC4
:10048000C001A39F700D811D1124911DB29F700D9D
:10049000811D1124911D0895BB274A3031F4992301
:1004A00022F4BDE2909581959F4F0C945802BB2792
:1004B000FB015527AA27880F991FAA1FA41710F020
:1004C000A41B83955051B9F7A05DAA3308F0A95D2C
:1004D000A193009779F7B111B1931192CB010C94CC
:1004E0007102DC01FC01672F71917723E1F73297EC
:1004F00004C07C916D9370836291AE17BF07C8F3FF
:060500000895F894FFCFFE
:100506003738392F3435362A3132332D43303D2BA7
:00000001FF
