S01700004763634170706C69636174696F6E342E7372656358
S11300000C942A000C943F000C943F000C943F0085
S11300100C943F000C943F000C943F000C943F0060
S11300200C943F000C943F000C943F000C943F0050
S11300300C943F000C943F000C943F000C943F0040
S11300400C943F000C943F000C943F000C943F0030
S11300500C943F0011241FBECFE5D8E0DEBFCDBF16
S113006011E0A0E6B0E0ECE6F8E002C005900D92E5
S1130070A230B107D9F70E947E000C9434040C948A
S1130080000080E487B987E886B9369A3699FECFAE
S1130090089597B1907F8F70892B87B9369A3699D6
S11300A0FECF84B195B108958D9A82E88FBD88E121
S11300B08EBD8EB583608EBD89EF90E097BD86BD01
S11300C01BBC1ABC089510BC87E689B988E18AB9BB
S11300D086E880BD08955D9BFECF8CB90895CF93CB
S11300E0DF93EC018881882331F021960E946B0014
S11300F089918111FBCFDF91CF910895CF93DF9345
S1130100CDB7DEB7A8970FB6F894DEBF0FBECDBF4C
S113011081B3806C81BB969A97980E9441000E949B
S113012054000E94630080E690E00E946F0082E821
S113013090E00E946F008BEA90E00E946F000F2E07
S113014044244A94F3E05F2E612C712CF02D0F2E81
S1130150F5ED8F2EF0E09F2EF02DCE0101965C017F
S113016080E00E9449008C016C01E12CF12CA6B5C1
S1130170B7B5A70196010E940E01A30192010E9446
S1130180EF003BBD2ABD86B597B59F938F933F93F0
S11301902F93A4E6B0E0A70196010E940E01A301EB
S11301A092010E94EF001F922F931F930F939F922F
S11301B08F92BF92AF920E944A01C5010E946F00C4
S11301C09FEF23EC89E0915020408040E1F700C08C
S11301D000000FB6F894DEBF0FBECDBFC1CF052E11
S11301E097FB1EF400940E94060157FD07D00E945D
S11301F0190107FC03D04EF40C9406015095409568
S1130200309521953F4F4F4F5F4F089590958095BE
S1130210709561957F4F8F4F9F4F08950E943B01CA
S1130220A59F900DB49F900DA49F800D911D112446
S11302300895A1E21A2EAA1BBB1BFD010DC0AA1F23
S1130240BB1FEE1FFF1FA217B307E407F50720F03B
S1130250A21BB30BE40BF50B661F771F881F991FB6
S11302601A9469F760957095809590959B01AC01FF
S1130270BD01CF010895A29FB001B39FC001A39F08
S1130280700D811D1124911DB29F700D811D1124CB
S1130290911D0895AEE0B0E0E0E5F1E00C940B04AC
S11302A00D891E8986E08C831A8309838FEF9FE76B
S11302B09E838D83AE01475E5F4F6F89788DCE013B
S11302C001960E946C01EF81F885E00FF11F108206
S11302D02E96E4E00C942704ABE0B0E0E2E7F1E012
S11302E00C94FD036C017B018A01FC0117821682C8
S11302F0838181FFCCC1CE0101963C01F60193813B
S1130300F70193FD859193FF81917F01882309F47F
S1130310BAC1853239F493FD859193FF81917F01B0
S1130320853229F4B60190E00E946303E7CF912C53
S1130330212C312CFFE1F315D8F08B3279F038F40D
S1130340803279F08332A1F4232D20611DC08D32D7
S113035061F0803369F4232D216016C0832D8260FF
S1130360382EE32DE4603E2E2AC0F32DF8601DC024
S113037037FC2DC020ED280F2A3040F08E32B9F41E
S113038036FC81C1232D2064322E19C036FE06C0EE
S11303908AE0989E200D1124922E11C0EAE02E9E30
S11303A0200D1124222EF32DF0623F2E08C08C362E
S11303B021F4832D8068382E02C0883641F4F70179
S11303C093FD859193FF81917F018111B3CF982F84
S11303D09F7D9554933028F40C5F1F4F9FE39983BE
S11303E00DC0833631F0833771F0833509F059C07D
S11303F021C0F801808189830E5F1F4F8824839474
S1130400912C530113C02801F2E04F0E511CF80146
S1130410A080B18036FE03C0692D70E002C06FEF8A
S11304207FEFC5010E9458034C018201F32DFF7731
S11304303F2E16C0280122E0420E511CF801A08074
S1130440B18036FE03C0692D70E002C06FEF7FEF0C
S1130450C5010E944D034C01F32DF0683F2E82012B
S113046033FC1BC0822D90E088169906B0F4B601C7
S113047080E290E00E9463032A94F4CFF50137FCF4
S1130480859137FE81915F01B60190E00E9463037C
S113049021102A9421E0821A91088114910471F7A1
S11304A0E8C0843611F0893641F5F80137FE07C0FB
S11304B060817181828193810C5F1F4F08C06081CC
S11304C07181072E000C880B990B0E5F1F4FF32DC3
S11304D0FF763F2E97FF09C09095809570956195A2
S11304E07F4F8F4F9F4FF0683F2E2AE030E0A301EB
S11304F00E949F03882E861845C0853731F4232D2A
S11305002F7EB22E2AE030E025C0932D997FB92E9C
S11305108F36C1F018F4883579F0B5C0803719F0FA
S1130520883721F0B0C0E92FE061BE2EB4FE0DC0C3
S1130530FB2DF460BF2E09C034FE0AC0292F2660AB
S1130540B22E06C028E030E005C020E130E002C051
S113055020E132E0F801B7FE07C060817181828139
S113056093810C5F1F4F06C06081718180E090E031
S11305700E5F1F4FA3010E949F03882E8618FB2D38
S1130580FF773F2E36FE0DC0232D2E7FA22E891419
S113059058F434FE0BC032FC09C0832D8E7EA82E85
S11305A005C0B82CA32C03C0B82C01C0B92CA4FEE0
S11305B00FC0FE01E80DF11D8081803321F49A2DD6
S11305C0997EA92E09C0A2FE06C0B394B39404C0B8
S11305D08A2D867809F0B394A3FC11C0A0FE06C04E
S11305E0B21488F4280C922C9B180EC0B21460F438
S11305F0B60180E290E00E946303B394F7CFB21493
S113060018F42B1802C0982C212CA4FE10C0B6019B
S113061080E390E00E946303A2FE17C0A1FC03C024
S113062088E790E002C088E590E0B6010CC08A2D0E
S1130630867859F0A1FE02C08BE201C080E2A7FCDB
S11306408DE2B60190E00E946303891438F4B60188
S113065080E390E00E9463039A94F7CF8A94F301B5
S1130660E80DF11D8081B60190E00E9463038110C2
S1130670F5CF222009F442CEB60180E290E00E9438
S113068063032A94F6CFF6018681978102C08FEF27
S11306909FEF2B96E2E10C941904FC010590615044
S11306A070400110D8F7809590958E0F9F1F089584
S11306B0FC016150704001900110D8F7809590952D
S11306C08E0F9F1F08950F931F93CF93DF93FB010A
S11306D0238121FD03C08FEF9FEF2CC022FF16C0A2
S11306E046815781248135814217530744F4A08100
S11306F0B1819D012F5F3F4F318320838C932681ED
S113070037812F5F3F4F3783268314C08B01EC0161
S1130710FB010084F185E02D0995892BE1F6D801D0
S113072016968D919C911797019617969C938E938C
S11307301697CE01DF91CF911F910F910895FA0181
S1130740AA27283051F1203181F1E8946F936E7F0C
S11307506E5F7F4F8F4F9F4FAF4FB1E03ED0B4E0FD
S11307603CD0670F781F891F9A1FA11D680F791F3E
S11307708A1F911DA11D6A0F711D811D911DA11D4F
S113078020D009F468943F912AE0269F112430195F
S1130790305D3193DEF6CF010895462F4770405DFA
S11307A04193B3E00FD0C9F7F6CF462F4F70405DA9
S11307B04A3318F0495D31FD4052419302D0A9F704
S11307C0EACFB4E0A6959795879577956795BA95FE
S11307D0C9F700976105710508959B01AC010A2EC4
S11307E006945795479537952795BA95C9F7620F9B
S11307F0731F841F951FA01D08952F923F924F923F
S11308005F926F927F928F929F92AF92BF92CF929C
S1130810DF92EF92FF920F931F93CF93DF93CDB7A5
S1130820DEB7CA1BDB0B0FB6F894DEBF0FBECDBF1D
S113083009942A88398848885F846E847D848C84EE
S11308409B84AA84B984C884DF80EE80FD800C81F7
S11308501B81AA81B981CE0FD11D0FB6F894DEBFDA
S10F08600FBECDBFED010895F894FFCF4A
S113086C4443204D6F746F7220537065656420434C
S113087C6F6E74726F6C20537461727465642E0D98
S113088C0A00506F74656E74696F6D6574657220BF
S113089C436F6E74726F6C7320537065656420289B
S11308AC302D31303025292E0D0A002D2D2D2D2DD6
S11308BC2D2D2D2D2D2D2D2D2D2D2D2D2D2D2D2D58
S11308CC2D2D2D2D2D2D2D2D2D2D2D2D2D2D2D2D48
S11308DC2D2D0D0A004144433A2025303475207CDB
S11308EC2053706565643A20253033752525207CAA
S11308FC2050574D3A20253034752F253034750D42
S105090C0A00DB
S9030000FC
